{
  "contractName": "AccessRestriction",
  "abi": [
    {
      "constant": true,
      "inputs": [],
      "name": "lastOwnerChange",
      "outputs": [
        {
          "internalType": "uint256",
          "name": "",
          "type": "uint256"
        }
      ],
      "payable": false,
      "stateMutability": "view",
      "type": "function"
    }
  ],
  "bytecode": "0x608060405242600055348015601357600080fd5b506084806100226000396000f3fe6080604052348015600f57600080fd5b506004361060285760003560e01c80635ff711ef14602d575b600080fd5b60336049565b6040518082815260200191505060405180910390f35b6000548156fea265627a7a7231582007959829a440c54a21621d076b501717d448eb117a6bebebb0ccc614f7a2e00b64736f6c63430005100032",
  "source": "// SPDX-License-Identifier: MIT\npragma solidity >=0.4.22 <0.9.0;\n\ncontract AccessRestriction {\n    uint public lastOwnerChange = block.timestamp;\n    \n    modifier onlyAfter(uint _time) {\n        require(block.timestamp >= _time);\n        _;\n    }\n    \n    modifier costs(uint _amount)  {\n        require(msg.value >= _amount);\n        _;\n    }\n}\n",
  "sourcePath": "C:/Users/Work/Desktop/Nouveau dossier (4)/solidity-drive-app-FINISHED/solidity-drive-app-FINISHED/contracts/AccessRestriction.sol",
  "compiler": {
    "name": "solc",
    "version": "0.5.16+commit.9c3226ce.Emscripten.clang"
  },
  "schemaVersion": "3.4.1",
  "updatedAt": "2021-06-26T18:44:49.652Z",
  "devdoc": {
    "methods": {}
  },
  "userdoc": {
    "methods": {}
  }
}